:020000040800F2
:1000000000280020D10D0008750D00087B0D0008A8
:10001000810D0008870D00088D0D0008000000000C
:10002000000000000000000000000000930D000828
:100030009F0D000800000000AB0D0008B70D000880
:10004000190E0008190E0008190E0008190E0008F4
:10005000190E0008190E0008190E0008190E0008E4
:10006000190E0008190E0008190E0008190E0008D4
:10007000190E0008190E0008190E0008190E0008C4
:10008000190E0008190E0008190E0008190E0008B4
:10009000190E0008190E0008190E0008190E0008A4
:1000A000190E0008190E0008190E0008190E000894
:1000B000190E0008190E000800000000190E0008B3
:1000C000190E00080000000000000000190E0008D2
:1000D00000000000190E0008190E000800000000C2
:1000E000190E0008190E0008190E00080000000083
:1000F0000000000000000000000000000000000000
:0C01000000000000000000005FF808F1A3
:10010C0010B5054C237833B9044B13B10448AFF345
:10011C0000800123237010BD0C00002000000000A3
:10012C003C1C000808B5034B1BB103490348AFF353
:10013C00008008BD00000000100000203C1C0008DE
:10014C0080B582B000AF78607B68052B22D100228D
:10015C000121714801F040F9002202216E4801F0A2
:10016C003BF9002204216C4801F036F900220821E9
:10017C00694801F031F900221021674801F02CF98F
:10018C0000222021644801F027F901224021624815
:10019C0001F022F97B68042B22D1012201215E4857
:1001AC0001F01AF9002202215B4801F015F9002236
:1001BC000421594801F010F901220821564801F098
:1001CC000BF901221021544801F006F901222021DB
:1001DC00514801F001F9012240214F4801F0FCF88F
:1001EC007B68032B22D1002201214B4801F0F4F84B
:1001FC0000220221484801F0EFF801220421464870
:10020C0001F0EAF800220821434801F0E5F8002249
:10021C001021414801F0E0F8012220213E4801F074
:10022C00DBF8002240213C4801F0D6F87B68022B19
:10023C0022D100220121384801F0CEF800220221FF
:10024C00354801F0C9F800220421334801F0C4F804
:10025C0000220821304801F0BFF8012210212E485D
:10026C0001F0BAF8012220212B4801F0B5F8002248
:10027C004021294801F0B0F87B68012B22D10122E2
:10028C000121254801F0A8F800220221224801F0A2
:10029C00A3F800220421204801F09EF80122082135
:1002AC001D4801F099F8012210211B4801F094F827
:1002BC0000222021184801F08FF800224021164816
:1002CC0001F08AF87B68002B22D100220121124810
:1002DC0001F082F8012202210F4801F07DF8002282
:1002EC0004210D4801F078F8002208210A4801F099
:1002FC0073F801221021084801F06EF80022202129
:10030C00054801F069F800224021034801F064F827
:10031C0000BF0837BD4680BD000C014080B582B0DF
:10032C0000AF78607B68032B22D1002201214B485F
:10033C0001F052F800220221484801F04DF8002249
:10034C000421464801F048F800220821434801F0F6
:10035C0043F800221021414801F03EF800222021F0
:10036C003E4801F039F8012240213C4801F034F8B4
:10037C007B68022B22D101220121384801F02CF894
:10038C0000220221354801F027F8002204213348CD
:10039C0001F022F801220821304801F01DF8012259
:1003AC0010212E4801F018F8012220212B4801F0D1
:1003BC0013F801224021294801F00EF87B68012B2B
:1003CC0022D100220121254801F006F80022022149
:1003DC00224801F001F801220421204800F0FCFF22
:1003EC00002208211D4800F0F7FF002210211B48B5
:1003FC0000F0F2FF01222021184800F0EDFF00224E
:10040C004021164800F0E8FF7B68002B22D1002227
:10041C000121124800F0E0FF002202210F4800F0F9
:10042C00DBFF002204210D4800F0D6FF002208213A
:10043C000A4800F0D1FF01221021084800F0CCFF3F
:10044C0001222021054800F0C7FF0022402103486B
:10045C0000F0C2FF00BF0837BD4680BD000C014054
:10046C0080B582B000AF78607B68022B22D100226D
:10047C000121384800F0B0FF00220221354800F07D
:10048C00ABFF00220421334800F0A6FF0022082114
:10049C00304800F0A1FF002210212E4800F09CFFF4
:1004AC00002220212B4800F097FF012240212948EF
:1004BC0000F092FF7B68012B22D1012201212548FB
:1004CC0000F08AFF00220221224800F085FF002262
:1004DC000421204800F080FF012208211D4800F073
:1004EC007BFF012210211B4800F076FF0122202106
:1004FC00184800F071FF01224021164800F06CFFF3
:10050C007B68002B22D100220121124800F064FFED
:10051C00002202210F4800F05FFF012204210D4848
:10052C0000F05AFF002208210A4800F055FF002273
:10053C001021084800F050FF01222021054800F04E
:10054C004BFF00224021034800F046FF00BF083754
:10055C00BD4680BD000C014080B582B000AF786014
:10056C007B68052B28D100228021834800F034FFC2
:10057C0000224FF48071804800F02EFF00224FF4CF
:10058C0000717D4800F028FF00224FF480617A480A
:10059C0000F022FF00224FF40061774800F01CFFAE
:1005AC0000224FF48051744800F016FF01224FF4E2
:1005BC000051714800F010FF7B68042B28D10122F8
:1005CC0080216D4800F008FF00224FF480716A48CA
:1005DC0000F002FF00224FF40071674800F0FCFEAF
:1005EC0001224FF48061644800F0F6FE01224FF4C2
:1005FC000061614800F0F0FE01224FF480515E482A
:10060C0000F0EAFE01224FF400515B4800F0E4FEDA
:10061C007B68032B28D100228021574800F0DCFE98
:10062C0000224FF48071544800F0D6FE01224FF4A2
:10063C000071514800F0D0FE00224FF480614E480A
:10064C0000F0CAFE00224FF400614B4800F0C4FEDB
:10065C0001224FF48051484800F0BEFE00224FF4B6
:10066C000051454800F0B8FE7B68022B28D10022CF
:10067C008021414800F0B0FE00224FF480713E48CA
:10068C0000F0AAFE00224FF400713B4800F0A4FEDB
:10069C0000224FF48061384800F09EFE01224FF496
:1006AC000061354800F098FE01224FF48051324829
:1006BC0000F092FE00224FF400512F4800F08CFE07
:1006CC007B68012B28D1012280212B4800F084FE6D
:1006DC0000224FF48071284800F07EFE00224FF477
:1006EC000071254800F078FE01224FF48061224809
:1006FC0000F072FE01224FF400611F4800F06CFE06
:10070C0000224FF480511C4800F066FE00224FF48A
:10071C000051194800F060FE7B68002B28D10022A4
:10072C008021154800F058FE01224FF480711248C8
:10073C0000F052FE00224FF400710F4800F04CFE06
:10074C0000224FF480610C4800F046FE01224FF469
:10075C000061094800F040FE00224FF48051064829
:10076C0000F03AFE00224FF40051034800F034FE32
:10077C0000BF0837BD4680BD000C014080B582B07B
:10078C0000AF78607B68032B28D10022802157486A
:10079C0000F022FE00224FF48071544800F01CFE41
:1007AC0000224FF40071514800F016FE00224FF465
:1007BC0080614E4800F010FE00224FF400614B485F
:1007CC0000F00AFE00224FF48051484800F004FE6D
:1007DC0001224FF40051454800F0FEFD7B68022BCE
:1007EC0028D101228021414800F0F6FD00224FF46F
:1007FC0080713E4800F0F0FD00224FF400713B4840
:10080C0000F0EAFD01224FF48061384800F0E4FD6D
:10081C0001224FF40061354800F0DEFD01224FF457
:10082C008051324800F0D8FD01224FF400512F487E
:10083C0000F0D2FD7B68012B28D1002280212B48AF
:10084C0000F0CAFD00224FF48071284800F0C4FD6E
:10085C0001224FF40071254800F0BEFD00224FF438
:10086C008061224800F0B8FD00224FF400611F485F
:10087C0000F0B2FD01224FF480511C4800F0ACFD99
:10088C0000224FF40051194800F0A6FD7B68002BA4
:10089C0028D100228021154800F09EFD00224FF443
:1008AC008071124800F098FD00224FF400710F483F
:1008BC0000F092FD00224FF480610C4800F08CFD9A
:1008CC0001224FF40061094800F086FD01224FF42B
:1008DC008051064800F080FD00224FF4005103487F
:1008EC0000F07AFD00BF0837BD4680BD000C01400A
:1008FC0080B582B000AF78607B68022B28D10022D3
:10090C008021414800F068FD00224FF480713E4880
:10091C0000F062FD00224FF400713B4800F05CFDDA
:10092C0000224FF48061384800F056FD00224FF44D
:10093C000061354800F050FD00224FF480513248E0
:10094C0000F04AFD01224FF400512F4800F044FD05
:10095C007B68012B28D1012280212B4800F03CFD23
:10096C0000224FF48071284800F036FD00224FF42D
:10097C000071254800F030FD01224FF480612248BF
:10098C0000F02AFD01224FF400611F4800F024FD05
:10099C0001224FF480511C4800F01EFD01224FF43F
:1009AC000051194800F018FD7B68002B28D100225B
:1009BC008021154800F010FD00224FF48071124880
:1009CC0000F00AFD01224FF400710F4800F004FD05
:1009DC0000224FF480610C4800F0FEFC00224FF422
:1009EC000061094800F0F8FC01224FF480510648E0
:1009FC0000F0F2FC00224FF40051034800F0ECFC34
:100A0C0000BF0837BD4680BD000C014080B500AF6B
:100A1C0000F0FEF900F0E0F800F01AF9694B1B68E1
:100A2C00042B5FDC01220221674800F0D5FC002278
:100A3C000421654800F0D0FC00220821624800F037
:100A4C00CBFC604B1B68022B1EDC002210215E4885
:100A5C0000F0C2FC002220215B4800F0BDFC01220A
:100A6C004021594800F0B8FC584B1B68032B02D1AD
:100A7C00564B00221A60554B1B685A1C53490A608E
:100A8C001846FFF77BFE1DE0002210214E4800F0B7
:100A9C00A3FC012220214C4800F09EFC00224021A6
:100AAC00494800F099FC4A4B1B68022B02D1484B79
:100ABC0000221A60464B1B685A1C45490A601846AE
:100ACC00FFF716FF434B1B68052B02D1414B00224D
:100ADC001A60404B1B685A1C3E490A601846FFF7C7
:100AEC002FFB5EE001221021374800F075FC00223C
:100AFC002021354800F070FC00224021324800F0E3
:100B0C006BFC344B1B68052B02D1324B00221A6054
:100B1C00304B1B685A1C2F490A601846FFF71CFD06
:100B2C00284B1B68072B1EDC00220221264800F0F4
:100B3C0053FC00220421244800F04EFC0122082121
:100B4C00214800F049FC214B1B68032B02D11F4BA1
:100B5C0000221A601D4B1B685A1C1C490A6018465F
:100B6C00FFF7DCFB1DE000220221174800F034FCEB
:100B7C0001220421144800F02FFC00220821124805
:100B8C0000F02AFC124B1B68022B02D1104B0022E6
:100B9C001A600F4B1B685A1C0D490A601846FFF768
:100BAC005FFC084B1B680133064A1360054B1B683E
:100BBC000A2B02D1034B00221A604FF47A7000F01A
:100BCC0089F92BE72C0000200008014030000020A0
:100BDC00340000202800002080B590B000AF07F151
:100BEC00180328220021184601F01AF83B1D002298
:100BFC001A605A609A60DA601A610223BB610123A1
:100C0C00BB621023FB6200237B6307F118031846B9
:100C1C0000F0FAFB0346002B01D000F06DF80F2317
:100C2C007B600023BB600023FB6000233B6100233F
:100C3C007B613B1D0021184600F066FE0346002B2D
:100C4C0001D000F059F800BF4037BD4680BD000010
:100C5C0080B586B000AF07F1080300221A605A6015
:100C6C009A60DA60214B9B69204A43F0040393613C
:100C7C001E4B9B6903F004037B607B681B4B9B69D9
:100C8C001A4A43F008039361184B9B6903F008035D
:100C9C003B603B6800227E21154800F09DFB002242
:100CAC0043F6FF71134800F097FB7E23BB600123D2
:100CBC00FB6000233B6102237B6107F108031946AB
:100CCC000B4800F00FFA43F6FF73BB600123FB6087
:100CDC0000233B6102237B6107F108031946054899
:100CEC0000F000FA00BF1837BD4680BD001002406E
:100CFC0000080140000C014080B400AF72B600BF88
:100D0C00FEE7000080B485B000AF154B9B69144A18
:100D1C0043F001039361124B9B6903F00103BB6029
:100D2C00BB680F4BDB690E4A43F08053D3610C4B0D
:100D3C00DB6903F080537B607B680A4B5B68FB606C
:100D4C00FB6823F0E063FB60FB6843F08063FB60AF
:100D5C00044AFB68536000BF1437BD4680BC704723
:100D6C00001002400000014080B400AFFEE780B4E8
:100D7C0000AFFEE780B400AFFEE780B400AFFEE743
:100D8C0080B400AFFEE780B400AF00BFBD4680BCAE
:100D9C00704780B400AF00BFBD4680BC704780B4C4
:100DAC0000AF00BFBD4680BC704780B500AF00F0FF
:100DBC0075F800BF80BD80B400AF00BFBD4680BCDD
:100DCC00704700000C480D490D4A002302E0D4582E
:100DDC00C4500433C4188C42F9D30A4A0A4C002379
:100DEC0001E013600432A242FBD3FFF7E4FF00F0F2
:100DFC00F3FEFFF70BFE7047000000200C000020F4
:100E0C007C1C00080C0000203C000020FEE70000C9
:100E1C0080B500AF084B1B68074A43F01003136002
:100E2C00032000F02BF90F2000F008F8FFF76AFF01
:100E3C000023184680BD00BF0020024080B582B060
:100E4C0000AF7860124B1A68124B1B7819464FF49E
:100E5C007A73B3FBF1F3B2FBF3F3184600F035F9F8
:100E6C000346002B01D001230EE07B680F2B0AD820
:100E7C00002279684FF0FF3000F00BF9064A7B68CE
:100E8C001360002300E0012318460837BD4680BDDF
:100E9C0000000020080000200400002080B400AFF7
:100EAC00054B1B781A46054B1B681344034A136009
:100EBC0000BFBD4680BC70470800002038000020F1
:100ECC0080B400AF024B1B681846BD4680BC70470F
:100EDC003800002080B584B000AF7860FFF7F0FFD9
:100EEC00B8607B68FB60FB68B3F1FF3F05D00A4B31
:100EFC001B781A46FB681344FB6000BFFFF7E0FF4A
:100F0C000246BB68D31AFA689A42F7D800BF00BFF2
:100F1C001037BD4680BD00BF0800002080B485B0EE
:100F2C0000AF78607B6803F00703FB600C4BDB6859
:100F3C00BB60BA684FF6FF031340BB60FB681A0234
:100F4C00BB68134343F0BF6343F40033BB60044AF4
:100F5C00BB68D36000BF1437BD4680BC704700BF70
:100F6C0000ED00E080B400AF044BDB681B0A03F01B
:100F7C0007031846BD4680BC704700BF00ED00E07B
:100F8C0080B483B000AF03463960FB7197F907302A
:100F9C00002B0ADB3B68DAB20C4997F907301201D7
:100FAC00D2B20B4483F800230AE03B68DAB208495A
:100FBC00FB7903F00F03043B1201D2B20B441A76F7
:100FCC0000BF0C37BD4680BC704700BF00E100E09D
:100FDC0000ED00E080B489B000AFF860B9607A60D1
:100FEC00FB6803F00703FB61FB69C3F10703042BE8
:100FFC0028BF0423BB61FB690433062B02D9FB69B0
:10100C00033B00E000237B614FF0FF32BB6902FA27
:10101C0003F3DA43BB681A407B699A404FF0FF3107
:10102C007B6901FA03F3D9437B680B4013431846E1
:10103C002437BD4680BC704780B582B000AF786065
:10104C007B68013BB3F1807F01D301230FE00A4A97
:10105C007B68013B53600F214FF0FF30FFF790FF8F
:10106C00054B00229A60044B07221A600023184695
:10107C000837BD4680BD00BF10E000E080B582B0EF
:10108C0000AF78607868FFF749FF00BF0837BD46AE
:10109C0080BD80B586B000AF0346B9607A60FB7343
:1010AC0000237B61FFF75EFF78617A68B968786925
:1010BC00FFF790FF024697F90F3011461846FFF7DD
:1010CC005FFF00BF1837BD4680BD80B582B000AF52
:1010DC0078607868FFF7B0FF034618460837BD46BE
:1010EC0080BD000080B48BB000AF78603960002305
:1010FC007B6200233B6248E101227B6A02FA03F324
:10110C00FB613B681B68FA691340BB61BA69FB69F8
:10111C009A4240F037813B685B68A34A93425ED0A9
:10112C00A14A934275D8A14A934258D09F4A934200
:10113C006FD89F4A934252D09D4A934269D89D4A98
:10114C0093424CD09B4A934263D89B4A934246D0DD
:10115C00994A93425DD8122B2AD8122B59D801A246
:10116C0052F823F0EB110008C5110008D711000844
:10117C00191200081F1200081F1200081F12000885
:10118C001F1200081F1200081F1200081F1200086F
:10119C001F1200081F1200081F1200081F1200085F
:1011AC001F1200081F120008CD110008E1110008E1
:1011BC00824A934213D02CE03B68DB683B6229E007
:1011CC003B68DB6804333B6224E03B68DB68083334
:1011DC003B621FE03B68DB680C333B621AE03B6808
:1011EC009B68002B02D104233B6213E03B689B6895
:1011FC00012B05D108233B627B68FA691A6109E06F
:10120C0008233B627B68FA695A6103E000233B6266
:10121C0000E000BFBB69FF2B01D87B6801E07B6855
:10122C0004337B61BB69FF2B02D87B6A9B0002E015
:10123C007B6A083B9B003B617B691A680F213B6909
:10124C0001FA03F3DB431A40396A3B6901FA03F3F1
:10125C001A437B691A603B685B6803F08053002B70
:10126C0000F09080564B9B69554A43F00103936103
:10127C00534B9B6903F00103BB60BB68514A7B6A0B
:10128C009B08023352F82330FB607B6A03F00303A4
:10129C009B000F2202FA03F3DB43FA681340FB6056
:1012AC007B68494A93420DD07B68484A934207D0E9
:1012BC007B68474A934201D1022304E0032302E0F6
:1012CC00012300E000237A6A02F0030292009340AB
:1012DC00FA681343FB603B497B6A9B080233FA684C
:1012EC0041F823203B685B6803F48033002B06D065
:1012FC00384B1A683749BB6913430B6006E0354B12
:10130C001A68BB69DB43334913400B603B685B686D
:10131C0003F40033002B06D02E4B5A682D49BB69C1
:10132C0013434B6006E02B4B5A68BB69DB432949DE
:10133C0013404B603B685B6803F48013002B06D0B2
:10134C00244B9A682349BB6913438B6006E0214BFD
:10135C009A68BB69DB431F4913408B603B685B6831
:10136C0003F40013002B06D01A4BDA681949BB6939
:10137C001343CB6006E0174BDA68BB69DB431549B6
:10138C001340CB607B6A01337B623B681A687B6AD3
:10139C0022FA03F3002B7FF4AFAE00BF00BF2C3753
:1013AC00BD4680BC704700BF0000321000003110F9
:1013BC00000022100000211000001210000011107B
:1013CC00001002400000014000080140000C0140E8
:1013DC00001001400004014080B483B000AF78607D
:1013EC000B467B8013467B707B78002B03D07A886E
:1013FC007B681A6103E07B881A047B681A6100BF62
:10140C000C37BD4680BC704780B586B000AF7860A5
:10141C007B68002B01D101236CE27B681B6803F015
:10142C000103002B00F08780924B5B6803F00C03E8
:10143C00042B0CD08F4B5B6803F00C03082B12D1E0
:10144C008C4B5B6803F48033B3F5803F0BD1894B35
:10145C001B6803F40033002B6CD07B685B68002B9B
:10146C0068D1012346E27B685B68B3F5803F06D107
:10147C00804B1B687F4A43F4803313602EE07B68FB
:10148C005B68002B0CD17B4B1B687A4A23F48033AE
:10149C001360784B1B68774A23F4802313601DE09C
:1014AC007B685B68B3F5A02F0CD1724B1B68714A3B
:1014BC0043F4802313606F4B1B686E4A43F48033F4
:1014CC0013600BE06B4B1B686A4A23F48033136088
:1014DC00684B1B68674A23F4802313607B685B6846
:1014EC00002B13D0FFF7ECFC386108E0FFF7E8FCA9
:1014FC0002463B69D31A642B01D90323FAE15D4BF5
:10150C001B6803F40033002BF0D014E0FFF7D8FC79
:10151C00386108E0FFF7D4FC02463B69D31A642B10
:10152C0001D90323E6E1534B1B6803F40033002B72
:10153C00F0D100E000BF7B681B6803F00203002BB6
:10154C0063D04C4B5B6803F00C03002B0BD0494B66
:10155C005B6803F00C03082B1CD1464B5B6803F44F
:10156C008033002B16D1434B1B6803F00203002B76
:10157C0005D07B681B69012B01D00123BAE13D4BDF
:10158C001B6823F0F8027B685B69DB003949134365
:10159C000B603AE07B681B69002B20D0364B012294
:1015AC001A60FFF78DFC386108E0FFF789FC0246F2
:1015BC003B69D31A022B01D903239BE12D4B1B68EA
:1015CC0003F00203002BF0D02A4B1B6823F0F80227
:1015DC007B685B69DB00274913430B6015E0264BE6
:1015EC0000221A60FFF76CFC386108E0FFF768FC1A
:1015FC0002463B69D31A022B01D903237AE11D4B16
:10160C001B6803F00203002BF0D17B681B6803F00E
:10161C000803002B3AD07B689B69002B19D0174B21
:10162C0001221A60FFF74CFC386108E0FFF748FC18
:10163C0002463B69D31A022B01D903235AE10D4B05
:10164C005B6A03F00203002BF0D0012000F0A6FA35
:10165C001CE00A4B00221A60FFF732FC38610FE0E5
:10166C00FFF72EFC02463B69D31A022B08D9032341
:10167C0040E100BF001002400000424280044242A0
:10168C009E4B5B6A03F00203002BE9D17B681B685D
:10169C0003F00403002B00F0A6800023FB75974B8E
:1016AC00DB6903F08053002B0DD1944BDB69934A1B
:1016BC0043F08053D361914BDB6903F08053BB60E3
:1016CC00BB680123FB758E4B1B6803F48073002BE6
:1016DC0018D18B4B1B688A4A43F480731360FFF755
:1016EC00EFFB386108E0FFF7EBFB02463B69D31ACE
:1016FC00642B01D90323FDE0814B1B6803F4807339
:10170C00002BF0D07B68DB68012B06D17B4B1B6A6E
:10171C007A4A43F0010313622DE07B68DB68002BEF
:10172C000CD1764B1B6A754A23F001031362734B81
:10173C001B6A724A23F0040313621CE07B68DB68AB
:10174C00052B0CD16D4B1B6A6C4A43F004031362DE
:10175C006A4B1B6A694A43F0010313620BE0674B47
:10176C001B6A664A23F001031362644B1B6A634ACB
:10177C0023F0040313627B68DB68002B15D0FFF7A2
:10178C009FFB38610AE0FFF79BFB02463B69D31ACB
:10179C0041F28832934201D90323ABE0574B1B6AC9
:1017AC0003F00203002BEED014E0FFF789FB386145
:1017BC000AE0FFF785FB02463B69D31A41F28832F7
:1017CC00934201D9032395E04C4B1B6A03F00203AF
:1017DC00002BEED1FB7D012B05D1484BDB69474A31
:1017EC0023F08053D3617B68DB69002B00F0818090
:1017FC00424B5B6803F00C03082B61D07B68DB6900
:10180C00022B46D13F4B00221A60FFF759FB38617F
:10181C0008E0FFF755FB02463B69D31A022B01D9AE
:10182C00032367E0354B1B6803F00073002BF0D1EA
:10183C007B681B6AB3F5803F08D1304B5B6823F49F
:10184C0000327B689B682D4913434B602B4B5B68C4
:10185C0023F474127B68196A7B685B6A0B43274913
:10186C0013434B60274B01221A60FFF729FB3861A9
:10187C0008E0FFF725FB02463B69D31A022B01D97E
:10188C00032337E01D4B1B6803F00073002BF0D0D3
:10189C002FE01C4B00221A60FFF712FB386108E0A6
:1018AC00FFF70EFB02463B69D31A022B01D9032327
:1018BC0020E0124B1B6803F00073002BF0D118E0F2
:1018CC007B68DB69012B01D1012313E00B4B5B68B7
:1018DC00FB60FB6803F480327B681B6A9A4206D17A
:1018EC00FB6803F470127B685B6A9A4201D0012397
:1018FC0000E0002318461837BD4680BD001002409A
:10190C00007000406000424280B584B000AF786047
:10191C0039607B68002B01D10123D0E06A4B1B6836
:10192C0003F007033A689A4210D9674B1B6823F0FF
:10193C00070265493B6813430B60634B1B6803F05C
:10194C0007033A689A4201D00123B8E07B681B6810
:10195C0003F00203002B20D07B681B6803F0040308
:10196C00002B05D0594B5B68584A43F4E063536035
:10197C007B681B6803F00803002B05D0534B5B6896
:10198C00524A43F460535360504B5B6823F0F002AF
:10199C007B689B684D4913434B607B681B6803F065
:1019AC000103002B40D07B685B68012B07D1474BB0
:1019BC001B6803F40033002B15D101237FE07B68F7
:1019CC005B68022B07D1414B1B6803F00073002BA3
:1019DC0009D1012373E03D4B1B6803F00203002B7C
:1019EC0001D101236BE0394B5B6823F003027B6868
:1019FC005B68364913434B60FFF762FAF8600AE004
:101A0C00FFF75EFA0246FB68D31A41F28832934222
:101A1C0001D9032353E02D4B5B6803F00C027B6868
:101A2C005B689B009A42EBD1274B1B6803F00703C2
:101A3C003A689A4210D2244B1B6823F007022249C1
:101A4C003B6813430B60204B1B6803F007033A6899
:101A5C009A4201D0012332E07B681B6803F0040337
:101A6C00002B08D0194B5B6823F4E0627B68DB68C1
:101A7C00164913434B607B681B6803F00803002B6B
:101A8C0009D0124B5B6823F460527B681B69DB0046
:101A9C000E4913434B6000F021F802460B4B5B6878
:101AAC001B0903F00F030A49CB5C22FA03F3094A22
:101ABC001360094B1B681846FFF7C0F90023184642
:101ACC001037BD4680BD00BF002002400010024010
:101ADC00641C0008000000200400002090B48AB0B0
:101AEC0000AF2A4B3C1D0FCB84E80F0040F20123C2
:101AFC003B800023FB610023BB6100237B6200233E
:101B0C007B6100233B62224B5B68FB61FB6903F04A
:101B1C000C03042B02D0082B03D02DE01D4B3B6291
:101B2C002DE0FB699B0C03F00F0307F12802134413
:101B3C0013F8243C7B61FB6903F48033002B13D036
:101B4C00134B5B685B0C03F0010307F12802134491
:101B5C0013F8283CBB617B690E4A02FB03F2BB699C
:101B6C00B2FBF3F37B6204E07B690B4A02FB03F3E9
:101B7C007B627B6A3B6202E0064B3B6200BF3B6AC6
:101B8C0018462837BD4690BC704700BF541C00084F
:101B9C000010024000127A0000093D0080B485B0AC
:101BAC0000AF78600A4B1B680A4AA2FB03235B0A4E
:101BBC007A6802FB03F3FB6000BFFB685A1EFA60F5
:101BCC00002BF9D100BF00BF1437BD4680BC704755
:101BDC0000000020D34D621070B500260C4D0D4C4A
:101BEC00641BA410A64209D100F022F800260A4D6D
:101BFC000A4C641BA410A64205D170BD55F8043BD9
:101C0C0098470136EEE755F8043B98470136F2E762
:101C1C00741C0008741C0008741C0008781C000854
:101C2C0003460244934200D1704703F8011BF9E7C5
:101C3C00F8B500BFF8BC08BC9E467047F8B500BFAD
:081C4C00F8BC08BC9E4670477D
:101C540002030405060708090A0B0C0D0E0F1010E9
:101C64000000000000000000010203040607080948
:041C74003101000832
:041C78000D01000852
:0C1C7C000024F400100000000100000033
:0400000508000DD111
:00000001FF
